:020000040800F2
:100000008004002005010008AF170008A7170008AA
:10001000AB1700088D010008012200080000000055
:100020000000000000000000000000003520000873
:100030009101000800000000411D00083720000861
:100040001F0100081F0100081F0100081F01000810
:100050001F0100081F01000893010008A901000802
:10006000B30100081F0100081F0100081F0100085C
:100070001F0100081F0100081F0100081F010008E0
:100080001F0100081F0100081F0100081F010008D0
:100090001F0100081F0100081F0100081F010008C0
:1000A0001F0100081F0100081F0100081F010008B0
:1000B0001F0100081F0100081F0100081F010008A0
:1000C0001F0100081F0100081F0100081F01000890
:1000D0001F010008D12100081F0100081F010008AE
:1000E0009D0100086D1D00081F010008DFF810D0F9
:1000F00000F03AF8004800476D280008AFF3008090
:10010000800400200648804706480047FEE7FEE7D7
:10011000FEE7FEE7FEE7FEE7FEE7FEE7FEE7FEE7B7
:100120003F200008ED000008D2B201E000F8012BEA
:10013000491EFBD270470022F6E710B513460A4667
:1001400004461946FFF7F0FF204610BD30B50446BF
:100150000020034600E05B1C934203D2E05CCD5CD0
:10016000401BF8D030BD0000064C074D06E0E068AB
:1001700040F0010394E8070098471034AC42F6D3EE
:10018000FFF7B8FFF8390008183A000800BFFEE78B
:10019000704710B5012000F06DF810BD10B54FF498
:1001A000806000F067F810BD10B5022000F062F822
:1001B00010BD10B5042000F05DF810BD70B5044608
:1001C000002600252948007800B170BD012C00D11F
:1001D0001026022C00D12026042C00D13026B4F5A4
:1001E000806F00D140264FF40051214800F0E0F923
:1001F00001280CD10A2002F007F900BF4FF400518A
:100200001B4800F0D5F90128F8D0012526E04FF46D
:100210008051174800F0CCF901280CD10A2002F0D7
:10022000F3F800BF4FF48051114800F0C1F90028E5
:10023000F8D1022512E04FF400610D4800F0B8F942
:1002400001280BD10A2002F0DFF800BF4FF4006153
:10025000074800F0ADF90028F8D1032526B11DB1FB
:1002600046EA05000149087000BFAEE70D00002016
:10027000000C014010B5044604480068204020B13D
:10028000024804602046FFF799FF10BD14040140A6
:100290002DE9F8470346002294466EE14FF001082D
:1002A00008FA02F4D1F8008008EA0400A0427DD1E7
:1002B000DFF8DCA2D1F80480A8EB0A09D0453AD0D7
:1002C00014DCB8F1030F50D009DCB8F1000F31D0C5
:1002D000B8F1010F1CD0B8F1020F49D120E0B8F1FC
:1002E000110F18D0B8F1120F42D11EE0B9F5881FD6
:1002F00025D006DCB9F5803F20D0B9F5801F37D175
:100300001AE0B9F5001F18D0B9F5041F30D117E075
:10031000D1F80CC02DE0D1F80C8008F1040C28E0D5
:10032000D1F80C8008F1080C23E0D1F80C8008F11A
:100330000C0C1EE000BF00BF00BF00BF00BF00BF2D
:10034000D1F80880B8F1000F02D14FF0040C0BE097
:10035000D1F80880B8F1010F03D14FF0080C1C61EF
:1003600002E04FF0080C5C6103E04FF0000C00E08D
:1003700000BF00BFFF2801D8984601E003F1040840
:100380004646FF2802D84FEA820803E0A2F1080897
:100390004FEA88084746D6F800804FF00F0909FA5F
:1003A00007F928EA09080CFA07F900E088E048EAAA
:1003B0000908C6F80080D1F8048008F08058B8F128
:1003C000805F7DD100BFDFF8CC81D8F8188048F07D
:1003D0000108DFF8C091C9F81880C846D8F818801D
:1003E00008F00108CDF8008000BF00BF4FEAB9381F
:1003F0004FEA920958F829504FEA82784FEA187963
:100400004FF00F0808FA09F825EA0805DFF8888197
:10041000434502D14FF0000816E0DFF880814345E4
:1004200002D14FF001080FE0DFF87481434502D19B
:100430004FF0020808E0DFF86C81434502D14FF02D
:10044000030801E04FF004084FEA82794FEA197976
:1004500008FA09F848EA0505DFF84C814FEA9209E5
:1004600048F82950D1F8048008F48018B8F5801FA6
:100470000AD1DFF83881D8F8008048EA0008DFF8B0
:100480002C91C9F8008009E0DFF82081D8F80080BD
:1004900028EA0008DFF81491C9F80080D1F8048038
:1004A00008F40018B8F5001F10D1DFF8008108F13A
:1004B0000408D8F8008048EA0008DFF8F09000E06F
:1004C0005AE009F10409C9F800800DE0DFF8DC808A
:1004D00008F10408D8F8008028EA0008DFF8CC907A
:1004E00009F10409C9F80080D1F8048008F4003843
:1004F000B8F5003F0ED1DFF8B480A8F10408D8F8B1
:10050000008048EA0008DFF8A490A9F10409C9F8BE
:1005100000800DE0DFF89480A8F10408D8F800808E
:1005200028EA0008DFF88490A9F10409C9F80080DE
:10053000D1F8048008F48038B8F5803F0ED1DFF898
:100540006C80A8F10808D8F8008048EA0008DFF8B5
:100550005C90A9F10809C9F800800DE0DFF84C8033
:10056000A8F10808D8F8008028EA0008DFF83C90D5
:10057000A9F10809C9F80080521CD1F8008028FAB6
:1005800002F8B8F1000F7FF489AEBDE8F8870000EB
:10059000000011100010024000080140000C014052
:1005A000001001400014014008000140080401400F
:1005B000024693680B400BB1012000E00020704719
:1005C0000AB1016101E00B04036170470148006852
:1005D00070470000000000200348006803490978C4
:1005E000084401490860704700000020080000200E
:1005F00010B50848006840F0100006490860032064
:1006000000F080F80F2000F007F800F02BF8002031
:1006100010BD00000020024070B504460E4800786E
:100620004FF47A71B1FBF0F00C490968B1FBF0F5B9
:10063000284600F05FFF08B1012070BD102C07D2E2
:1006400000222146501E00F01EF80548046001E01B
:100650000120F2E70020F0E7080000202000002041
:1006600004000020704701460846002809DB00F01E
:100670001F0301229A4043099B0003F1E023C3F8C2
:10068000002100BF70472DE9F05F80460D461646F9
:10069000002701F05FFE074639462A46334601F03F
:1006A0000700C0F1070ABAF1040F02D94FF0040A9B
:1006B00001E0C0F1070AD14600F1040ABAF1070FC0
:1006C00002D24FF0000A01E0A0F1030AD4464FF035
:1006D000010A0AFA09FAAAF1010A0AEA020A0AFA5E
:1006E0000CFA4FF0010B0BFA0CFBABF1010B0BEA10
:1006F000030B4AEA0B042146404601F033FEBDE8F5
:10070000F09F000000BF00F00702064B19684FF68B
:10071000FF031940044B0B4343EA0221014B1960CC
:1007200000BF70470CED00E00000FA050120014910
:100730000862704700000E422DE9F04706464FF070
:100740000008002500270024A146012E31D0022EEA
:1007500056D0102E5FD132484468006800F0807097
:1007600008B33048C4F38341475C04F4803078B167
:100770002B484068C0F340402B4911F8008004F436
:10078000803040B12948B0FBF8F000FB07F502E0EB
:10079000274807FB00F52248406800F48000B0F5C8
:1007A000800F01D1A94603E068000321B0FBF1F9F5
:1007B00032E01B48046A04F44070B0F5807F05D134
:1007C00004F0020010B14FF4004918E004F4407046
:1007D000B0F5007F07D11248406A00F0020010B166
:1007E00049F640490BE004F44070B0F5407F06D173
:1007F0000B48006800F4003008B14FF224490BE0C8
:1008000000F08CF906494968C1F38131491C49005F
:10081000B0FBF1F900E000BF00BF4846BDE8F0873B
:10082000001002401E3000082E30000800127A002E
:1008300000093D00F8B5044600260025207800F0A8
:10084000010000286BD000274348C06900F08050A9
:1008500070B900BF4048C06940F080503E49C8614F
:100860000846C06900F08050009000BF00BF01271B
:100870003A48006800F48070B0B93848006840F425
:10088000807036490860FFF7A1FE064606E0FFF7D4
:100890009DFE801B642801D90320F8BD2F48006805
:1008A00000F480700028F2D02B48006A00F44075F4
:1008B0002DB3A08800F44070A84220D02648006ADA
:1008C00020F4407501202649086000200860224875
:1008D000056205F0010090B1FFF778FE064608E0DA
:1008E000FFF774FE801B41F28831884201D9032052
:1008F000D3E71948006A00F002000028F0D016483B
:10090000006A20F440706168084313490862012FAF
:1009100004D10846C06920F08050C86100BF20782B
:1009200000F00200022807D10B48406820F4404044
:10093000A168084308494860207800F0100010289A
:1009400007D10548406820F48000E1680843024967
:1009500048600020A1E70000001002400070004045
:100960004004424270B504460D460CB9012070BDEA
:100970005A48006800F00700A8420ED257480068A5
:1009800020F007002843554908600846006800F039
:100990000700A84201D00120E9E7207800F002001A
:1009A00002281DD1207800F00400042805D14C480D
:1009B000406840F4E0604A494860207800F0080050
:1009C000082805D14648406840F4605044494860D2
:1009D0004348406820F0F000A1680843404948605F
:1009E000207800F0010078B36068012806D13C4807
:1009F000006800F4003090B90120B8E76068022870
:100A000006D13748006800F0007040B90120AEE719
:100A10003348006800F0020008B90120A7E7304819
:100A2000406820F00300616808432D494860FFF7E3
:100A3000CDFD064609E0FFF7C9FD801B41F2883174
:100A4000884202D9032092E707E02548406800F079
:100A50000C006168B0EB810FEDD12048006800F018
:100A60000700A8420ED91D48006820F0070028435F
:100A70001A4908600846006800F00700A84201D043
:100A8000012074E7207800F00400042807D11448FE
:100A9000406820F4E060E16808431149486020782C
:100AA00000F00800082808D10D48406820F4605084
:100AB000216940EAC1000A49486000F03FF808494E
:100AC0004968C1F30311074A515CC84006490860F0
:100AD00006480068FFF7A0FD002048E7002002401C
:100AE00000100240E039000820000020040000202F
:100AF00001480068704700002000002000B5FFF7A3
:100B0000F7FF04494968C1F30221034A515CC84018
:100B100000BD000000100240F039000800B5FFF7EA
:100B2000E7FF04494968C1F3C221034A515CC84048
:100B300000BD000000100240F039000870B500212F
:100B40000022002400230020134D696801F00C05E9
:100B5000F5B1042D02D0082D19D101E00F4819E09C
:100B60000F4DC1F38346AB5D01F4803555B10A4D9D
:100B70006D68C5F340450B4E725D084D5D43B5FB96
:100B8000F2F402E0084D03FB05F4204602E000BF4A
:100B9000024800BF00BF70BD0010024000127A0082
:100BA0000C3000081C30000800093D00F8B5044670
:100BB0000CB90120F8BD207800F00100002878D0A1
:100BC000F848406800F00C0004280CD0F548406854
:100BD00000F00C00082811D1F248406800F4803081
:100BE000B0F5803F0AD1EF48006800F400300028DB
:100BF0005FD0606800285CD10120DBE700BF60683F
:100C0000B0F5803F06D1E748006840F48030E54900
:100C1000086028E0606858B9E248006820F4803035
:100C2000E04908600846006820F4802008601AE067
:100C30006068B0F5A02F0BD1DA48006840F480203E
:100C4000D84908600846006840F4803008600AE02F
:100C5000D448006820F48030D24908600846006813
:100C600020F48020086000BF606888B1FFF7AEFC08
:100C7000054606E0FFF7AAFC401B642801D90320C3
:100C800098E7C848006800F400300028F2D010E06F
:100C9000FFF79CFC054606E0FFF798FC401B642824
:100CA00001D9032086E7BF48006800F4003000281F
:100CB000F2D1207800F00200022857D1B9484068EC
:100CC00000F00C0050B1B748406800F00C00082854
:100CD00018D1B448406800F4803098B9B148006831
:100CE00000F0020020B12069012801D0012061E755
:100CF000AC48006820F0F800616940EAC100A949E9
:100D0000086033E02069E8B10120A7490860FFF7D7
:100D10005DFC054606E0FFF759FC401B022801D99F
:100D2000032047E79F48006800F002000028F2D047
:100D30009C48006820F0F800616940EAC1009949C8
:100D4000086013E0002098490860FFF73FFC054663
:100D500006E0FFF73BFC401B022801D9032029E7EE
:100D60009048006800F002000028F2D1207800F0DE
:100D7000080008282DD1A069B8B101208B4908606E
:100D8000FFF724FC054606E0FFF720FC401B022885
:100D900001D903200EE78348406A00F002000028D2
:100DA000F2D0012000F0CEFF13E000207F49086060
:100DB000FFF70CFC054606E0FFF708FC401B022885
:100DC00001D90320F6E67748406A00F002000028C7
:100DD000F2D1207800F00400042873D10027714874
:100DE000C06900F0805070B900BF6E48C06940F023
:100DF00080506C49C8610846C06900F0805000907E
:100E000000BF00BF01276A48006800F48070B0B9D5
:100E10006748006840F4807065490860FFF7D6FBBA
:100E2000054606E0FFF7D2FB401B642801D90320EA
:100E3000C0E65F48006800F480700028F2D000BF70
:100E4000E068012806D15748006A40F00100554982
:100E5000086227E0E06858B95248006A20F00100B3
:100E6000504908620846006A20F00400086219E050
:100E7000E06805280BD14B48006A40F0040049495E
:100E800008620846006A40F0010008620AE045482E
:100E9000006A20F00100434908620846006A20F019
:100EA0000400086200BFE068A0B1FFF78FFB0546B1
:100EB00009E0FFF78BFB401B41F28831884202D9E1
:100EC000032077E622E03748006A00F0020000289D
:100ED000EFD012E0FFF77AFB054608E0FFF776FB5C
:100EE000401B41F28831884201D9032062E62D4837
:100EF000006A00F002000028F0D1012F05D1294836
:100F0000C06920F080502749C86100BFE069C8B3BC
:100F10002448406800F00C00082860D0E0690228EE
:100F200048D1002020490866FFF750FB054606E03F
:100F3000FFF74CFB401B022801D903203AE6194871
:100F4000006800F000700028F2D1206AB0F5803F00
:100F500007D11448406820F40030A16808431149C3
:100F60004860D4E9080108430E49496821F4741126
:100F700008430C49486001200B490866FFF726FB2F
:100F8000054607E03DE0FFF721FB401B022801D9A1
:100F900003200FE60348006800F000700028F2D03C
:100FA0002FE0000000100240000042428004424254
:100FB00000700040002014490866FFF707FB054653
:100FC00006E0FFF703FB401B022801D90320F1E5EF
:100FD0000E48006800F000700028F2D111E0E069CE
:100FE000012800D1E6E50948466806F48031206A08
:100FF000814204D106F47011606A814201D001205F
:10100000D8E50020D6E50000000042420010024072
:1010100010B504464FF4807001F0DCFB10BD0000F9
:1010200010B5044620680068C0F3400068B120682D
:101030004068C0F3400040B12046FFF7E9FF206858
:10104000406820F00200216848604FF400300249F7
:1010500008600120607410BD14040140F8B5054615
:101060000C4616460020009005B10CB90120F8BDD1
:1010700000226946284600F01AF808B10120F6E778
:10108000287B2070E87BE070687B6070A87BA07094
:101090005EB1E07800F07DFEE070607800F079FEEF
:1010A0006070A07800F075FEA0700020DFE72DE9E9
:1010B000F04780460C46914600250026AA460027A8
:1010C000B8F1000F00D014B90120BDE8F087D8F8BE
:1010D00000004068C0F3800008B10120F5E74046F9
:1010E00000F01EFF05464FF46160B5FBF0F7B5FB5D
:1010F000F0F100FB11503C21B0FBF1F060704FF4B7
:101100006160B5FBF0F100FB11503C21B0FBF1F246
:1011100001FB1200A070182F39D31820B7FBF0FA8A
:10112000B7FBF0F100FB11702070404600F0ECFEC0
:101130000646701C18B1AE4201D9761B01E04FF093
:10114000FF360AEB4A00C000C0EB4011C1EB0020A3
:10115000A5EB00152946404600F055FF08B10120D7
:10116000B3E7701C38B12E443146404600F034FFDE
:1011700040B10120A9E73146404600F02DFF08B1FB
:101180000120A2E75146404600F010FE00E0277023
:10119000B9F1000F0BD0207800F0FBFD20706078D3
:1011A00000F0F7FD6070A07800F0F3FDA070002063
:1011B0008BE7000070B5044600250CB9012070BD16
:1011C000607C20B900202074204600F053F80220F3
:1011D0006074204600F05AF918B1042060740120B0
:1011E000EDE7204600F03DFE18B1042060740120B8
:1011F000E5E72068406820F0070021684860A068A3
:1012000028B11B48006820F00100194908601848FF
:10121000001F006820F46070A16808431449091F8A
:1012200008606068401C08B1656809E00120FFF7AC
:1012300083FA05461DB9042060740120BFE76D1EC6
:10124000C5F3034021688860A8B22168C8602046C1
:1012500000F024FE18B1042060740120AFE70021E3
:10126000E17301216173A173012060740020A6E77E
:10127000306C004010B58EB0044601200D49086066
:101280000820049001200A9000200B9004A8FFF78A
:101290008DFC01200090400201906846FFF7CAFAD9
:1012A000012211462920FFF7EEF92920FFF7DBF98B
:1012B0000EB010BD3C0442422DE9F04704460D46F5
:1012C000904600260027B14604B115B90120BDE8BB
:1012D000F08700BF207C012801D10220F7E7012020
:1012E000207400BF02206074B8F1000F06D1E978C5
:1012F000E17369786173A978A1730BE0E87800F075
:101300003DFDE073687800F039FD6073A87800F067
:1013100035FDA073A27B617BE07B00F01BFE207398
:10132000207B2870204600F0FBFD06464FF46160EC
:10133000B6FBF0F9B9F1180F2FD91820B9FBF0F06E
:1013400000EB4000C000C0EB4011C1EB0020A6EB59
:1013500000163146204600F056FE38B10420607475
:1013600000BF0020207400BF0120B0E7204600F03D
:10137000CBFD0746781C80B1B7420ED20B4807441C
:101380003946204600F028FE38B10420607400BFC2
:101390000020207400BF012099E70120607400BF85
:1013A0000020207400BF00BF91E7000080510100C1
:1013B0002DE9F04704460D4690460026002704B16B
:1013C00015B90120BDE8F08700BF207C012801D1BC
:1013D0000220F7E70120207400BF02206074B8F1FA
:1013E000000F0BD128784FF4616148436978C1EB55
:1013F000011100EB8100A978461812E0287800F06E
:10140000BDFC4FF4616100FB01F9687800F0B6FCA7
:10141000C0EB001009EB8009A87800F0AFFC09EBE5
:1014200000063146204600F0EEFD38B1042060741D
:1014300000BF0020207400BF0120C3E7206840687F
:1014400020F0050021684860204600F05DFD074659
:10145000781C80B1B7420ED20B480744394620466B
:1014600000F0BAFD38B10420607400BF0020207481
:1014700000BF0120A6E70120607400BF0020207497
:1014800000BF00BF9EE700008051010070B5044618
:1014900000250CB9012070BD2068406820F00800CC
:1014A00021684860FFF792F8054607E0FFF78EF8DD
:1014B000401BB0F57A7F01D90320ECE72068406833
:1014C00000F008000028F1D00020E4E7042808D14B
:1014D0004FF0E021096941F004014FF0E022116171
:1014E00007E04FF0E021096921F004014FF0E0220C
:1014F0001161704770B504462546681EB0F1807FC3
:1015000001D301200FE0681E4FF0E02148610F2158
:101510004FF0FF3000F026FF00204FF0E0218861FF
:1015200007200861002070BD10B504460CB90120E9
:1015300010BDA06900B100E000BF94F8410028B9D7
:10154000002084F84000204600F02AF8242084F887
:1015500041002068C06820F400502168C86020461F
:1015600000F06EFD2068006920F490402168086159
:101570002068406920F02A00216848612068C0681E
:1015800040F400502168C86000206064202084F886
:10159000410084F842000020606300BFC8E70000FB
:1015A00010B586B004462149206888423BD100BF6F
:1015B0001F48806940F480401D4988610846806961
:1015C00000F48040019000BF00BF00BF0846806962
:1015D00040F0040088610846806900F00400019032
:1015E00000BF00BF48150290022003900120049024
:1015F0000320059002A90F48FEF74AFE4FF48060D1
:1016000002900020039002A90A48FEF741FE05203F
:10161000FFF778F8012211462520FFF734F825203E
:10162000FFF721F800BF06B010BD000000380140F0
:1016300000100240000801402DE9F84F04460E4614
:10164000174699464FF0000A94F8420020284FD1DF
:1016500006B117B90120BDE8F88F00206064222090
:1016600084F8420000202063FEF7B0FF8246A78581
:10167000E785A068B0F5805F04D1206910B9002526
:10168000B04602E035464FF0000829E053460022FC
:1016900020212046CDF8009000F050FD08B1032035
:1016A000D9E745B920684068C0F30800A8F80000F1
:1016B00008F1020811E0A068B0F5805F03D0A068CF
:1016C00028B9206918B920684068287004E02068AB
:1016D000406800F07F0028706D1CE08D401EE085A2
:1016E000E08D0028D2D1202084F842000020B2E70B
:1016F0000220B0E72DE9F84F04460E4617469946FA
:101700004FF0000A94F8410020284AD106B117B9D9
:101710000120BDE8F88F00206064212084F841009A
:10172000FEF754FF8246A784E784A068B0F5805F87
:1017300004D1206910B90025B04602E035464FF0CB
:1017400000081BE05346002280212046CDF800907F
:1017500000F0F4FC08B10320DBE745B9B8F800005D
:10176000C0F308002168486008F1020803E0287807
:10177000216848606D1CE08C401EE084E08C0028ED
:10178000E0D15346002240212046CDF8009000F0E1
:10179000D5FC08B10320BCE7202084F841000020DC
:1017A000B7E70220B5E700BFFEE700BFFEE77047DE
:1017B00070B500240EE00021204600F003F900255A
:1017C00004E0002000F090FA681CC5B2802DF8DB20
:1017D000601CC4B2082CEEDB70BD000000B585B003
:1017E00000BF1248806940F008001049886108462F
:1017F000806900F00800009000BF00BFC020019089
:1018000011200290002003900320049001A90848B1
:10181000FEF73EFD012240210548FEF7D1FE0122E0
:1018200080210348FEF7CCFE05B000BD0010024049
:10183000000C014070B50546002413E080202041D3
:1018400000EA050280210E48FEF7BAFE012240217F
:101850000B48FEF7B5FE002240210948FEF7B0FE16
:10186000601CC4B2082CE9DB012240210448FEF7C9
:10187000A7FE002240210248FEF7A2FE70BD000034
:10188000000C014010B5012280210948FEF798FEA6
:10189000012240210648FEF793FE002280210448E1
:1018A000FEF78EFE002240210148FEF789FE10BDA2
:1018B000000C014010B5002280210748FEF780FE91
:1018C000012240210448FEF77BFE012280210248CC
:1018D000FEF776FE10BD0000000C014070B500243C
:1018E00006E0002500E06D1CB5F57A7FFBD3641C93
:1018F000B4F57A7FF5D3FFF771FFAE2000F0E4F97D
:10190000D52000F0E1F9802000F0DEF9A82000F0F9
:10191000DBF93F2000F0D8F9D32000F0D5F9002002
:1019200000F0D2F9402000F0CFF9A12000F0CCF96E
:10193000C82000F0C9F9DA2000F0C6F9122000F042
:10194000C3F9812000F0C0F9CF2000F0BDF9D92003
:1019500000F0BAF9F12000F0B7F9DB2000F0B4F99B
:10196000302000F0B1F9A42000F0AEF9A62000F07C
:10197000ABF98D2000F0A8F9142000F0A5F9AF20F4
:1019800000F0A2F9FFF714FF70BD000010B5044687
:1019900002A20121204600F037F910BD20202020AE
:1019A00020202020202020202020202000000000B7
:1019B00010B50246012000E050430B1EA1F10101C9
:1019C000FAD110BD70B505460C4645F0B00000F0E8
:1019D0007BF9102141EA141000F076F904F00F00B1
:1019E00000F072F970BD00002DE9F04105460E4689
:1019F0001746721ED206110E6A1E5206100EFFF70F
:101A0000E1FF002409E0A7F12001134A02EB0111D4
:101A1000085D00F069F9601CC4B2082CF3DB721E8B
:101A2000D206110E6A1E012303EB4202D0B2FFF769
:101A3000C9FF00240BE0A7F12001074A02EB0112C5
:101A400004F10801505C00F04FF9601CC4B2082C8E
:101A5000F1DBBDE8F0810000F03300082DE9F04132
:101A600005460E461746721ED206110E6A1E520613
:101A7000100EFFF7A7FF002407E0124901EB471102
:101A8000085D00F031F9601CC4B2102CF5DB721E49
:101A9000D206110E6A1E012303EB4202D0B2FFF7F9
:101AA00091FF002409E0074901EB471204F11001FE
:101AB000505C00F019F9601CC4B2102CF3DBBDE8D7
:101AC000F0810000703000082DE9F04105460E4617
:101AD0001746721ED206110E6A1E5206100EFFF72E
:101AE00071FF002407E0124901EB4711085D00F087
:101AF000FBF8601CC4B2102CF5DB721ED206110E6E
:101B00006A1E012303EB4202D0B2FFF75BFF002401
:101B100009E0074901EB471204F11001505C00F0A5
:101B2000E3F8601CC4B2102CF3DBBDE8F0810000C8
:101B3000503300082DE9F04106460F4615467A1E3F
:101B4000D206110E721E5206100EFFF73BFF002444
:101B50000FE035B11A4901EB4511085D00F0C4F8FA
:101B600005E0174901EB4511085D00F0BDF8601C68
:101B7000C4B2102CEDDB7A1ED206110E721E0123A8
:101B800003EB4202D0B2FFF71DFF002413E045B182
:101B90000B4901EB451204F11001505C00F0A4F870
:101BA00007E0074901EB451204F11001505C00F019
:101BB0009BF8601CC4B2102CE9DBBDE8F08100008A
:101BC000303000082DE9F04780460E4617461D4686
:101BD000002415E0281B411E0A20FFF7E9FEB7FB91
:101BE000F0F00A21B0FBF1F201FB120000F1300924
:101BF0003019C1B24A464046FFF7F6FE601CC4B237
:101C0000AC42E7DBBDE8F0872DE9F04107460E4620
:101C10001546002407E02A5D3019C1B23846FFF7A7
:101C2000E3FE601CC4B2285D0028F4D1BDE8F08159
:101C300010B5244800F0A4FE2248007800F5FA62AE
:101C4000042302210120FFF7BDFF0022062101200D
:101C5000FFF73AFF1B484278022308210120FFF7D3
:101C6000B1FF01220A211046FFF72EFF15488278A6
:101C700002230C210120FFF7A5FF02220E210120E3
:101C8000FFF722FF0F48C278022304211846FFF70E
:101C900099FF3A2206210220FFF7A6FE09480279A1
:101CA000022307211846FFF78DFF3A22092102205F
:101CB000FFF79AFE0348427902230A211846FFF7EC
:101CC00081FF10BD1700002010B50446FFF7DAFDB4
:101CD0007820FFF7AFFD0020FFF7ACFD2046FFF7AF
:101CE000A9FDFFF7E7FD10BD10B50446FFF7CAFDDB
:101CF0007820FFF79FFD4020FFF79CFD2046FFF76F
:101D000099FDFFF7D7FD10BD1FB50020029003908D
:101D1000062002A900231A46CDE9001019461846EC
:101D200000F093FA0622054902A8FEF70FFA10B94F
:101D3000012004B010BD0020FBE700000F000020D0
:101D40007047000008B508490968C9084FF47A725D
:101D5000B1FBF2F14143009100BF00BF00994A1E60
:101D600000920029F9D108BD2000002010B50248DA
:101D7000FFF756F910BD00006C000020014600BFBF
:101D8000080900EB8000420001F00F001044C0B2CF
:101D900070470146002203E0521CA1F10A00C1B2C3
:101DA0000A29F9D2100741EA106070472DE9F0477F
:101DB00006468846002700240025A146F77B747B51
:101DC000B57B00BF40E0012C0BD0032C09D0052CC3
:101DD00007D0072C05D0082C03D00A2C01D00C2CDE
:101DE0000CD11F2D01D26D1C2CE00C2C02D0641CD8
:101DF000012527E0012401257F1C23E0042C05D0C8
:101E0000062C03D0092C01D00B2C06D11E2D01D29B
:101E10006D1C17E0641C012514E0022C12D11C2D4E
:101E200001D26D1C0EE01C2D08D1B8B200F053F8A1
:101E300008B16D1C06E0641C012503E01D2D01D1D5
:101E4000641C012509F10109C145BCD3F773747302
:101E5000B573EAB2E1B2384600F07CF83073BDE801
:101E6000F08770B504460025FEF7B0FB054607E095
:101E7000FEF7ACFB401BB0F57A7F01D9032070BDA3
:101E80002068406800F020000028F1D020684068F9
:101E900040F01000216848600020F0E770B504466B
:101EA00000252068406820F0100021684860FEF797
:101EB0008DFB054607E0FEF789FB401BB0F57A7FF6
:101EC00001D9032070BD2068406800F02000002880
:101ED000F1D00020F6E7014601F0030008B1002030
:101EE00070476420B1FBF0F200FB121008B1012032
:101EF000F6E74FF4C870B1FBF0F200FB121008B91E
:101F00000120EDE70020EBE70146002200230868EE
:101F1000006A82B20868406A83B243EA02407047AE
:101F200030B5014600220023002400200D68AD6971
:101F3000AAB20D68ED69ACB20D68AD69ABB29A4258
:101F400005D00D68ED6963F31F45284601E044EABA
:101F5000024030BDF0B504460B460021002504F5D3
:101F6000FA61032B1BD2C3EBC30000EB031009265D
:101F7000B0FBF6F01044001D4618481E06EB900614
:101F80006427B0FBF7F0361A481EBF00B0FBF7F02D
:101F900030440726B0FBF6F706FB17051AE0C3EB43
:101FA000C30000EB03100926B0FBF6F01044001D3F
:101FB000084400EB91006426B1FBF6F6801B4FF459
:101FC000C876B1FBF6F63044801E0726B0FBF6F764
:101FD00006FB1705E8B2F0BD70B504460D460026B5
:101FE0002046FFF73EFF08B101260AE0280C2168D1
:101FF0000862A8B2216848622046FFF74FFF00B18F
:102000000126304670BD70B504460D4600262046B8
:10201000FFF727FF08B101260AE0280C2168886134
:10202000A8B22168C8612046FFF738FF00B1012639
:10203000304670BD704710B5FEF7CEFA10BD704740
:1020400070B504462168096921F44051E2681143E2
:10205000226811612269A1681143626941EA02059F
:102060002168C96841F20C62914329432268D1601A
:102070002168496921F44071A269114322685161C4
:102080002D4A2168914202D1FEF748FD01E0FEF79A
:1020900035FD00EBC00101EB001162689200B1FB5D
:1020A000F2F100EBC00202EB001263689B00B2FB8E
:1020B000F3F26423B2FBF3F202EBC20303EB02126E
:1020C000A1EB8201322202EB01116422B1FBF2F199
:1020D00001F0F00100EBC00202EB001263689B000C
:1020E000B2FBF3F26423B2FBF3F201EB021200EB5A
:1020F000C00101EB001163689B00B1FBF3F100EB41
:10210000C00303EB00136668B600B3FBF6F3642666
:10211000B3FBF6F303EBC30606EB0313A1EB83015A
:10212000322303EB01116423B1FBF3F101F00F0142
:1021300011442268916070BD003801402DE9F041E2
:1021400004460D4617469846069E34E0701C88B338
:102150002EB1FEF73BFAA0EB0800B0422BD900BF2E
:1021600000BF21680C3151E8001F21F4D0702168B4
:102170000C3141E80002002AF3D100BF00BF00BFCC
:102180002168143151E8001F21F001002168143149
:1021900041E80002002AF3D100BF202084F841006A
:1021A00084F8420000BF002084F8400000BF0320F4
:1021B000BDE8F081FFE7206800682840A84201D10F
:1021C000012000E00020B842C0D00020F0E700006D
:1021D00010B5094800680068C0F3401050B14FF4D2
:1021E0007A73012205490448FFF726FA034800786C
:1021F00000F094FE10BD0000240000200C00002020
:1022000000BFFEE770B505460E4600F091F800F0FD
:1022100055F8280440EA063400F042FC202000F083
:1022200053FCC4F3074000F04FFCC4F3072000F058
:102230004BFCE0B200F048FC00F03CFC00F035F84C
:1022400070BD10B500F0E8FB10BD2DE9F05F06464B
:102250000F4690469946DDE90AAB00F069F8300474
:1022600040EA073040EA082040EA090400F018FC80
:10227000032000F029FCC4F3074000F025FCC4F360
:10228000072000F021FCE0B200F01EFC002506E073
:10229000FF2000F019FC0AF80500681C85B25D45B6
:1022A000F6DB00F007FCBDE8F09F10B500F0F8FB8E
:1022B000042000F009FC00F0FDFB10BD10B500F09B
:1022C000EFFB062000F000FC00F0F4FB10BD2DE950
:1022D000F04706460F4690469946DDF820A000F0EC
:1022E00027F8FFF7EBFF300440EA073040EA082404
:1022F00000F0D6FB022000F0E7FBC4F3074000F03B
:10230000E3FBC4F3072000F0DFFBE0B200F0DCFBEE
:10231000002505E019F8050000F0D6FB681C85B221
:102320005545F7DB00F0C6FBFFF7BFFFBDE8F087C0
:1023300010B500F0B5FB052000F0C6FB00BFFF2084
:1023400000F0C2FB00F001000028F8D100F0B2FB61
:1023500010BD000002480068C0F302207047000072
:102360000CED00E010B5002804DB0A07130E054A47
:10237000135406E00A07140E034A00F00F031B1F54
:10238000D45410BD00E400E018ED00E002E008C8FD
:10239000121F08C1002AFAD170477047002001E0DF
:1023A00001C1121F002AFBD170471FB50020029007
:1023B0000390062002A900231A46CDE90010194611
:1023C0001846FFF742FF9DF80800FF2802D09DF84D
:1023D000080010B9002004B010BD0120FBE7000088
:1023E00010B5044600204FF0E0210861FFF76EF8B9
:1023F0002046E11704EB5171C1F3CF01014A11806E
:1024000010BD00000A00002070B504464FF47A7039
:1024100094FBF0F594FBF0F100FB114603E0074854
:1024200000F00EF86D1E002DF9D12EB14FF47A7127
:1024300006FB01F000F004F870BD000040420F0000
:102440000146114A12884A434FF0E0235A610022A4
:102450009A611A46126942F001021A6100BF4FF0F8
:10246000E022106900F001021AB100F48032002A63
:10247000F5D04FF0E022126922F001024FF0E02384
:102480001A6100229A6170470A00002010B5FFF718
:102490008FF9032211460220FFF7E0FA04220521FA
:1024A0000220FFF7DBFA052207210220FFF7D6FA08
:1024B000152209210220FFF7D1FA16220B21022052
:1024C000FFF7CCFA21220D210220FFF78DFA10BD73
:1024D00010B500F097FC002450E000F09DF8044691
:1024E000232C01D02A2C01D1204610BD002C45D030
:1024F00023480078062841DA214801780078401CFA
:102500001F4A10701F48445410460078012805D116
:102510002A2205210220FFF767FA2FE018480078E9
:10252000022804D12A220621FFF75EFA26E0144889
:102530000078032805D12A2207210220FFF754FA48
:102540001CE00F480078042805D12A220821022027
:10255000FFF74AFA12E00A480078052805D12A2236
:1025600009210220FFF740FA08E005480078062814
:1025700004D12A220A210220FFF736FAADE7000033
:10258000150000200F00002010B5FFF711F90224FC
:102590000FE00121002000F03DFB4FF49670FFF7A3
:1025A00033FF0021084600F035FB4FF49670FFF72B
:1025B0002BFF201EA4F10101CCB2EAD10D48007816
:1025C000401EC0B20B49087090B9FFF75FFF4FF48F
:1025D000407000F0FFF840F6B830FFF715FF4FF4F9
:1025E000407000F0EDF8FFF7E3F8032001490870B0
:1025F00010BD00000E00002010B5FFF7D9F8012132
:10260000084600F007FB4FF4FA70FFF7FDFE0021CB
:10261000012000F0FFFA10BD10B500242948007811
:1026200000284CD027480078112801D1312440E0FF
:1026300024480078122801D132243AE02148007859
:10264000132801D1332434E01E480078212801D119
:1026500034242EE01B480078222801D1352428E0BC
:1026600018480078232801D1362422E01548007844
:10267000312801D137241CE012480078322801D1DA
:10268000382416E00F480078332801D1392410E0AF
:102690000C480078412801D12A240AE00948007832
:1026A000422801D1302404E006480078432800D1B4
:1026B0002324C820FFF7A8FE002002490870204606
:1026C00010BD00000D00002000B585B000BF2348FC
:1026D000806940F00800214988610846806900F05F
:1026E0000800009000BF00BF40F2074001901C4866
:1026F0000290012003900320049001A91948FDF7DE
:10270000C7FD4FF46050019000200290022003901A
:1027100001A91448FDF7BCFD002201210620FDF7A8
:10272000B2FF0620FDF79FFF002201210720FDF7E1
:10273000AAFF0720FDF797FF002201210820FDF7DF
:10274000A2FF0820FDF78FFF002201212820FDF7BE
:102750009AFF2820FDF787FF05B000BD001002405A
:1027600000002110000C014000B585B000BF1248E8
:10277000806940F00800104988610846806900F0CF
:102780000800009000BF00BF4FF44070019001208E
:10279000029003900320049001A90848FDF778FDFA
:1027A000012211020548FDF70BFF012251020348E7
:1027B000FDF706FF05B000BD00100240000C01400F
:1027C00010B50446012221460148FDF7F9FE10BD6F
:1027D000000C014010B50446002221460148FDF7D7
:1027E000EFFE10BD000C014010B5FEF7E1FF032025
:1027F0001C49087032E0FFF71BFA012000F056FA7E
:10280000FFF70AFF232802D02A281AD116E000F089
:10281000DFF902E00220FFF7B9F8FFF759FE23289D
:10282000F8D1FFF771FA012805D1FFF7E5FE002086
:102830000D49087001E0FFF7A7FE02E000F0EEFA94
:1028400000BF00BF0848007840B90121002000F017
:102850003DFA4FF4FA70FFF7D7FD00E0CBE700BF79
:1028600010BD00000E00002016000020FDF7C0FE85
:102870004FF4E01000F066FB4820FFF7B1FDFFF7D2
:1028800073FF00F02DFBFFF71FFFFFF727F8FFF79F
:10289000D8FC00F03DF800F06BF835E0FFF785FD5F
:1028A00001280CD119480078012802D1FFF79CFFBC
:1028B0002AE01648007838BB00F078FB24E0FFF7E8
:1028C000B7F9012000F03AFA4FF4B470FFF79CFD1D
:1028D000002000F033FA4FF4B470FFF795FDFFF7D6
:1028E0009BFE88B100F074F90CE002E00220FFF7D3
:1028F0004DF8FFF7EDFD2328F8D100F0B3FA0128D9
:1029000000D100E0F1E700BFC8E70000160000209A
:1029100008B500BF1348C06940F080501149C86134
:102920000846C06900F08050009000BF00BF00BFA3
:102930000846C06940F00060C8610846C06900F000
:102940000060009000BF00BFFDF7F0FE0648074999
:10295000086049F63F404860002104488160FEF766
:1029600029FC08BD00100240002800406C00002037
:1029700010B5024800F026F810BD00001700002036
:102980001CB50446002269460D48FEF767FB00228D
:1029900001A90B48FEF78BFB9DF8030020709DF802
:1029A000010060709DF80200A0709DF80400E070C6
:1029B0009DF8050020719DF8060060711CBD0000A7
:1029C0006C0000201CB5044620788DF80700607864
:1029D0008DF80500A0788DF80600002201A90D48A9
:1029E000FEF76AFCE0788DF8000020798DF8010090
:1029F00060798DF80200002269460648FEF7D8FC8F
:102A000000BF044800684068C0F340100028F8D0B8
:102A10001CBD00006C00002000B585B000BF1E4842
:102A2000806940F004001C4988610846806900F014
:102A30000400009000BF00BF012002900820019018
:102A4000002003900320049001A91448FDF720FC06
:102A50004020019001A91148FDF71AFC20200190A7
:102A600001A90E48FDF714FC00200290039080207D
:102A7000019001A90948FDF70BFC0022202107481D
:102A8000FDF79EFD012208210448FDF799FD052070
:102A9000FFF7D6FC05B000BD001002400008014061
:102AA00010B5002208210248FDF78AFD10BD000084
:102AB0000008014010B5012208210248FDF780FD01
:102AC00010BD00000008014070B504460025002636
:102AD0002AE004F0800028B1012240211448FDF7CB
:102AE0006FFD04E0002240211148FDF769FD6006FA
:102AF000040E012220210E48FDF762FD0520FFF79C
:102B00009FFC6806050E80210948FDF751FD08B1BC
:102B100045F00105002220210548FDF751FD052063
:102B2000FFF78EFC701CC6B2082ED2DB284670BDA3
:102B30000008014010B50446FEF73AFE012C23D1EF
:102B4000002202210120FEF789FF01220421104604
:102B5000FEF784FF022206210120FEF77FFF1022EC
:102B600008210120FEF77AFF03220A210120FEF747
:102B700075FF04220C210120FEF770FF3A220E217E
:102B80000120FEF731FF22E0002202210120FEF7A2
:102B900065FF012204211046FEF760FF0222062194
:102BA0000120FEF75BFF0F2208210120FEF756FFF0
:102BB00003220A210120FEF751FF04220C210120EB
:102BC000FEF74CFF3A220E210120FEF70DFF10BD4B
:102BD00010B5FEF7EDFD002203210120FEF73EFFB8
:102BE000012205211046FEF739FF022207210120AC
:102BF000FEF734FF032209210120FEF72FFF0422F4
:102C00000B210120FEF72AFF3A220D210120FEF7B9
:102C1000EBFE10BD70B504460D46012D35D1012CDB
:102C200019D1032204210220FEF718FF04220621F5
:102C30000220FEF713FF112208210220FEF70EFFEB
:102C400012220A210220FEF709FF21220C21022074
:102C5000FEF7CAFE1EE0032204210220FEF7FEFE5C
:102C6000042206210220FEF7F9FE13220821022089
:102C7000FEF7F4FE14220A210220FEF7EFFE2122C5
:102C80000C210220FEF7B0FE04E003A20121022085
:102C9000FEF7BAFF70BD0000202020202020202059
:102CA00020202020202020200000000010B5044615
:102CB000012C05D1012207210420FEF73BFF04E08F
:102CC000002207210420FEF735FF10BD70B5044631
:102CD0000D46012D21D1012C0FD1052211460320D3
:102CE000FEF7BCFE072211460320FEF7B7FE0822BE
:102CF00009210320FEF7B2FE14E00522114602204E
:102D0000FEF7ACFE062207210220FEF7A7FE0722EF
:102D100009210220FEF7A2FE04E003A20121032004
:102D2000FEF772FF70BD0000202020202020202010
:102D300020202020202020200000000010B5044684
:102D4000012C1ED1002203210420FEF787FE0C2255
:102D500005210420FEF782FE082207210420FEF749
:102D60007DFE032209210420FEF778FE04220B21B8
:102D70001046FEF773FE21220D210420FEF734FEDB
:102D800004E003A201210420FEF73EFF10BD000075
:102D90002020202020202020202020202020202033
:102DA0000000000010B50446FEF702FD012C19D109
:102DB0000C2204210220FEF751FE082206210220E7
:102DC000FEF74CFE0D2208210220FEF747FE0E22E0
:102DD0000A210220FEF742FE21220C210220FEF7EA
:102DE00003FE04E002A201210220FEF70DFF10BD48
:102DF00020202020202020202020202020202020D3
:102E00000000000003480021016081800020024989
:102E1000087070470F0000201500002010B500203A
:102E2000FFF788FE02E00220FEF7B0FDFFF750FB3F
:102E30002328F8D1FEF768FF01280FD1FFF7DCFB4C
:102E40000120FFF777FE02E00220FEF79FFDFFF76B
:102E50003FFB2328F8D100F005F801E0FFF794FBD1
:102E600010BD00001FB5FEF7A3FC00210846FFF7C8
:102E7000C9F90620194B0022114600901046FFF7B1
:102E800026FA002002900390062002A900231A4689
:102E9000CDE9001019461846FFF7D7F906220F4969
:102EA00002A8FDF753F9B8B902240DE00120FFF79D
:102EB00079FF4FF49670FFF7A7FA0020FFF772FF33
:102EC0004FF49670FFF7A0FA201EA4F10101CCB2D6
:102ED000ECD1012004B010BD0020FBE70F00002062
:102EE00010B50C480C4908604FF4165048600C218E
:102EF0000948416100210161C1608160FEF714FB56
:102F000005480068C06840F0200003490968C860AF
:102F100010BD0000003801402400002001B54FF42E
:102F20007A73012269460648FEF7E4FB00BF0448B5
:102F300000680068C0F3C0100028F8D008BD000089
:102F40002400002030B58FB005460124282105A8B3
:102F5000FDF7F1F814216846FDF7EDF80120059022
:102F6000000406900020079002200C90C1030D91F0
:102F70000E9505A8FDF71AFE04460CB100BFFEE74A
:102F80000F20009002200190002002904FF48060FA
:102F900003900020049002216846FDF7E3FC0446FC
:102FA0000CB100BFFEE70FB030BD000010B5FEF75A
:102FB000FFFB03201349087020E0FEF739FE0020D4
:102FC000FFF774FEFFF728FB232802D02A2807D139
:102FD00003E001200C49087002E0FFF71FFF00BF6B
:102FE00000BF09480078012808D101210846FFF7F1
:102FF0006DFE4FF4FA70FFF707FA00E0DDE700BF5F
:1030000010BD00000E000020160000200203040581
:10301000060708090A0B0C0D0E0F1010010202031F
:103020000405060708090A0B0C0D0E0F101001020B
:10303000000000000000000000000080C0603018A8
:1030400002060C18302030180C06030100000000A6
:1030500000C0F8CEC3C1C1C1C1C1C1C3CEF8C00058
:1030600000FFFFFFFFFFFFFFFFFFFFFFFFFFFF006E
:103070004042CC0000445454547F545454444000C3
:1030800000007F201000FF15151555957F000000EA
:1030900088681FC80810C85452D1129408D0100074
:1030A000091909FF0500FF1292FF005F807F0000F1
:1030B000000000000001E21CE00000000000000031
:1030C000804020100C03000000030C304080800082
:1030D000108C4404E40495A64424148444940C0005
:1030E00002027A414143427E42424243F8000000DC
:1030F0000484E45C44C40002F2828282FE80800088
:1031000002017F10103F00080808084888403F006F
:103110000000E28282828282828282FE00000000BF
:1031200000003F4040404040404040404078000068
:103130002010EC27F42CE00022920ED2221E000078
:1031400080601F093F89FF000A0909FF090908007B
:1031500020102CE7242400E22C20BF2028E60000C9
:103160000101017F2111804F20100F10204F80009E
:10317000100C4444444445C64444444444140C00A4
:103180008040201E2040407F44444444444040004E
:10319000004042445840407F40405048C600000034
:1031A000004044444444444444444444FF00000038
:1031B0000808E8292E28E80808C80C0BE8080800C9
:1031C0000000FF0949897F00000F40807F00000058
:1031D0000040424242C27E42C2424242404000005F
:1031E000804020100C0300003F4040404070000031
:1031F000404042CC0040A09E8282829EA0202000BF
:103200000000003F908840432C10284641808000F9
:103210000000F8888888880808FF08090AC808009C
:1032200080601F0010201F80402116182641F800E2
:10323000080808F80808081010FF101010F0000027
:103240001030101F088848300E014080403F0000B9
:103250000000FF000000FE828282828282FE000067
:103260000000FF0000007F2020202020207F0000A1
:1032700040445465C664544400FC4444C442400085
:1032800020124A827F020A92601F0000FF000000A5
:10329000000202C2020202FE8282828282020000D8
:1032A0004040407F4040407F4040404040404000E0
:1032B0000484E45C44C42010E82724E4342CE000B7
:1032C00002017F10103F80601F09093F49897F007C
:1032D0004030EF246448487F4848487F48484000D1
:1032E00001017F211100FF4949494949FF000000C0
:1032F0004042CC0000809E92929292929E8000006A
:1033000000007F2094844424140F142444848400F7
:10331000404424147F14240024147F1424444000C7
:10332000088849290949897909090929498808002A
:103330000000FE22222222FE22222222FE00000083
:1033400080601F020202027F020242827F000000B0
:10335000002018C744444444FC444444440400004E
:103360000404040704040404FF0404040404040023
:10337000000000FE2222222222222222FE00000041
:103380008040300F02020202020242827F000000EF
:10339000000000FE82828282828282FE00000000A3
:1033A000000000FF40404040404040FF000000005F
:1033B00000F8012220222AF22222222202FE00000C
:1033C00000FF00001F01017F09110F40807F0000F6
:1033D00020102CE7242400F01010FF1010F0000043
:1033E0000101017F211100070202FF020207000014
:1033F00000000000000000000000000000000000CD
:10340000000000F800000000000000333000000061
:1034100000100C06100C0600000000000000000068
:1034200040C07840C0784000043F04043F040400DA
:10343000007088FC08300000001820FF211E0000EA
:10344000F008F000E018000000211C031E211E00FF
:1034500000F00888700000001E2123241927211085
:1034600010160E0000000000000000000000000028
:10347000000000E0180402000000000718204000CF
:1034800000020418E00000000040201807000000BF
:10349000404080F0804040000202010F0102020023
:1034A000000000F0000000000101011F0101010007
:1034B000000000000000000080B07000000000006C
:1034C00000000000000000000001010101010101F5
:1034D000000000000000000000303000000000008C
:1034E0000000000080601804006018060100000061
:1034F00000E010080810E000000F102020100F005E
:10350000001010F8000000000020203F20200000E4
:10351000007008080888700000302824222130003C
:1035200000300888884830000018202020110E0044
:103530000000C02010F8000000070424243F2400ED
:1035400000F80888880808000019212020110E00C2
:1035500000E0108888180000000F112020110E00D4
:1035600000380808C83808000000003F00000000CC
:103570000070880808887000001C222121221C008D
:1035800000E010080810E0000000312222110F00B6
:10359000000000C0C000000000000030300000004B
:1035A00000000080000000000000806000000000BB
:1035B00000008040201008000001020408102000D4
:1035C000404040404040400004040404040404001F
:1035D00000081020408000000020100804020100B4
:1035E000007048080808F0000000003036010000B4
:1035F000C030C828E810E0000718272423140B0067
:103600000000C038E0000000203C230202273820E0
:1036100008F8888888700000203F202020110E00C4
:10362000C0300808080838000718202020100800BB
:1036300008F808080810E000203F202020100F00A4
:1036400008F88888E8081000203F20202320180070
:1036500008F88888E8081000203F200003000000D8
:10366000C03008080838000007182020221E020079
:1036700008F808000008F808203F210101213F2038
:10368000000808F8080800000020203F2020000063
:1036900000000808F8080800C08080807F00000053
:1036A00008F888C028180800203F2001263820008C
:1036B00008F8080000000000203F202020203000F3
:1036C00008F8F800F8F80800203F003F003F20000D
:1036D00008F830C00008F808203F200007183F0015
:1036E000E01008080810E0000F10202020100F0044
:1036F00008F808080808F000203F21010101000037
:10370000E01008080810E0000F18242438504F007B
:1037100008F8888888887000203F2000030C30203B
:1037200000708808080838000038202121221C0079
:10373000180808F8080818000000203F20000000C2
:1037400008F808000008F808001F202020201F00AB
:103750000878880000C83808000007380E0100000B
:10376000F80800F80008F800033C0700073C0300D5
:10377000081868808068180820302C03032C30203B
:103780000838C800C83808000000203F20000000AA
:1037900010080808C8380800203826212020180002
:1037A000000000FE020202000000007F40404000D6
:1037B000000C30C000000000000000010638C0000E
:1037C00000020202FE000000004040407F000000B6
:1037D00000000402020204000000000000000000DB
:1037E00000000000000000008080808080808080D9
:1037F00000020204000000000000000000000000C1
:1038000000008080808000000019242222223F20B6
:1038100008F8008080000000003F112020110E00F9
:103820000000008080800000000E11202020110088
:10383000000000808088F800000E112020103F203A
:103840000000808080800000001F222222221300BE
:10385000008080F0888888180020203F2020000009
:103860000000808080808000006B949494936000BE
:1038700008F8008080800000203F210000203F20C9
:1038800000809898000000000020203F20200000C9
:10389000000000809898000000C08080807F0000B9
:1038A00008F8000080808000203F24022D30200096
:1038B000000808F8000000000020203F2020000041
:1038C0008080808080808000203F20003F20003F5B
:1038D0008080008080800000203F210000203F2069
:1038E0000000808080800000001F202020201F001A
:1038F000808000808000000080FFA12020110E0049
:103900000000008080808000000E112020A0FF8039
:10391000808080008080800020203F2120000100E6
:10392000000080808080800000332424242419003B
:10393000008080E0808000000000001F2020000048
:103940008080000000808000001F202020103F2089
:10395000808080000080808000010E300806010019
:1039600080800080008080800F300C030C300F00BE
:1039700000808000808080000020312E0E312000E9
:10398000808080000080808080818E701806010019
:1039900000808080808080000021302C2221300037
:1039A00000000000807C020200000000003F404058
:1039B00000000000FF00000000000000FF00000009
:1039C0000002027C800000000040403F0000000038
:1039D00000060101020204040000000000000000D3
:1039E00000000000000000000102030406070809AF
:1039F0000000000001020304183A00080000002043
:103A0000240000008C2300083C3A00082400002019
:103A10005C0400009C23000800000000100000006F
:103A20000100000000000300000000000000011879
:0C3A3000091B1010000000000024F4002E
:04000005080000ED02
:00000001FF
